{
  "address": "0xe7f1725E7734CE288F8367e1Bb143E90bb3F0512",
  "abi": [
    {
      "inputs": [
        {
          "internalType": "uint256",
          "name": "_initValue",
          "type": "uint256"
        }
      ],
      "name": "initialize",
      "outputs": [],
      "stateMutability": "nonpayable",
      "type": "function"
    },
    {
      "inputs": [],
      "name": "initialized",
      "outputs": [
        {
          "internalType": "bool",
          "name": "",
          "type": "bool"
        }
      ],
      "stateMutability": "view",
      "type": "function"
    },
    {
      "inputs": [
        {
          "internalType": "uint256",
          "name": "_newValue",
          "type": "uint256"
        }
      ],
      "name": "setValue",
      "outputs": [],
      "stateMutability": "nonpayable",
      "type": "function"
    },
    {
      "inputs": [],
      "name": "value",
      "outputs": [
        {
          "internalType": "uint256",
          "name": "",
          "type": "uint256"
        }
      ],
      "stateMutability": "view",
      "type": "function"
    }
  ],
  "transactionHash": "0xb6f969435078321e7b0bf43d30dd124ce024fd90520461cc3f77dcc342bb85ff",
  "args": [],
  "numDeployments": 1,
  "solcInputHash": "150c6c0523166d13c87746c3d790f769",
  "bytecode": "0x608060405234801561001057600080fd5b5061015e806100206000396000f3fe608060405234801561001057600080fd5b506004361061004c5760003560e01c8063158ef93e146100515780633fa4f24514610073578063552410771461008a578063fe4b84df1461009f575b600080fd5b60005461005e9060ff1681565b60405190151581526020015b60405180910390f35b61007c60015481565b60405190815260200161006a565b61009d61009836600461010f565b600155565b005b61009d6100ad36600461010f565b60005460ff16156100fb5760405162461bcd60e51b81526020600482015260146024820152734f6e6c7920696e697469616c697a65206f6e636560601b604482015260640160405180910390fd5b60019081556000805460ff19169091179055565b60006020828403121561012157600080fd5b503591905056fea26469706673582212203e177474b34724f4cc287dd72b1dd00681dc956127f7ea284a481999b81fd3a964736f6c63430008130033",
  "devdoc": {
    "kind": "dev",
    "methods": {},
    "version": 1
  },
  "userdoc": {
    "kind": "user",
    "methods": {},
    "version": 1
  },
  "storageLayout": {
    "storage": [
      {
        "astId": 5,
        "contract": "contracts/StandardProxy/Impl.sol:Impl",
        "label": "initialized",
        "offset": 0,
        "slot": "0",
        "type": "t_bool"
      },
      {
        "astId": 7,
        "contract": "contracts/StandardProxy/Impl.sol:Impl",
        "label": "value",
        "offset": 0,
        "slot": "1",
        "type": "t_uint256"
      }
    ],
    "types": {
      "t_bool": {
        "encoding": "inplace",
        "label": "bool",
        "numberOfBytes": "1"
      },
      "t_uint256": {
        "encoding": "inplace",
        "label": "uint256",
        "numberOfBytes": "32"
      }
    }
  }
}